S01200006D6963726F77617665322E7372656313
S11300000C944E000C94FD060C946B000C946B0045
S11300100C946B000C946B000C946B000C946B00B0
S11300200C946B000C946B000C946B000C946B00A0
S11300300C946B000C946B000C946B000C946B0090
S11300400C946B000C946B000C946B000C946B0080
S11300500C946B004F0160017101820193019301C3
S113006093019301930193019301930193019301EC
S113007093019301930193019301930193019301DC
S113008093019301930193019301930193019301CC
S1130090930193014F0160017101820111241FBE7C
S11300A0CFE5D8E0DEBFCDBF10E0A0E6B0E0E2E1EE
S11300B0FAE102C005900D92A239B107D9F720E008
S11300C0A2E9B0E001C01D92A639B207E1F70E948F
S11300D019060C94070D0C9400008F7D8134C9F42B
S11300E041110CC09AB321E030E002C0220F331F4B
S11300F06A95E2F7822F8095892309C02AB381E0AB
S113010090E002C0880F991F6A95E2F7822B8ABBA0
S113011008958234C9F441110CC097B321E030E052
S113012002C0220F331F6A95E2F7822F809589233C
S113013009C027B381E090E002C0880F991F6A9537
S1130140E2F7822B87BB08958334C9F441110CC0B4
S113015094B321E030E002C0220F331F6A95E2F726
S1130160822F8095892309C024B381E090E002C0E6
S1130170880F991F6A95E2F7822B84BB0895411179
S11301800CC091B321E030E002C0220F331F6A9506
S1130190E2F7822F8095892309C021B381E090E0A2
S11301A002C0880F991F6A95E2F7822B81BB0895DC
S11301B08F7D8134C9F441110CC09BB321E030E040
S11301C002C0220F331F6A95E2F7822F809589239C
S11301D009C02BB381E090E002C0880F991F6A9593
S11301E0E2F7822B8BBB08958234C9F441110CC011
S11301F098B321E030E002C0220F331F6A95E2F782
S1130200822F8095892309C028B381E090E002C041
S1130210880F991F6A95E2F7822B88BB089583346F
S1130220C9F441110CC095B321E030E002C0220FA3
S1130230331F6A95E2F7822F8095892309C025B37D
S113024081E090E002C0880F991F6A95E2F7822B43
S113025085BB089541110CC092B321E030E002C087
S1130260220F331F6A95E2F7822F8095892309C0F4
S113027022B381E090E002C0880F991F6A95E2F7EB
S1130280822B82BB089590E0FC01E154F109E43231
S1130290F10508F048C0E65DFF4F0C94F20C29B359
S11302A041E050E002C0440F551F6A95E2F730E088
S11302B02423352381E024173507B1F180E0089524
S11302C026B341E050E002C0440F551F6A95E2F79F
S11302D030E02423352381E02417350729F180E019
S11302E0089523B341E050E002C0440F551F6A95BE
S11302F0E2F730E02423352381E024173507A1F009
S113030080E0089520B341E050E002C0440F551F3F
S11303106A95E2F730E02423352381E0241735077A
S113032019F080E0089580E00895CF93DF9383343B
S113033009F462C028F4813459F0823499F186C0FA
S1130340823681F1833609F457C0813609F07EC0C4
S113035040E050E0A1E0B0E0C1E0D0E070E08BB359
S11303609D01042E02C0220F331F0A94E2F790E08D
S113037082239323FC2F8217930709F4FD2FEC2F7C
S1130380CB01822393238217930709F0ED2FFE13E9
S113039003C08BB328272BBB4F5F5F4F44305105FD
S11303A0F1F67DC040E050E0A1E0B0E0C1E0D0E073
S11303B070E088B39D01042E02C0220F331F0A94FB
S11303C0E2F790E082239323FC2F8217930709F42A
S11303D0FD2FEC2FCB01822393238217930709F07F
S11303E0ED2FFE1303C088B3282728BB4F5F5F4F50
S11303F044305105F1F653C040E050E0A1E0B0E0D4
S1130400C1E0D0E070E085B39D01042E02C0220F4C
S1130410331F0A94E2F790E082239323FC2F821780
S1130420930709F4FD2FEC2FCB018223932382172A
S1130430930709F0ED2FFE1303C085B3282725BBCE
S11304404F5F5F4F44305105F1F629C040E050E062
S1130450A1E0B0E0C1E0D0E070E082B39D01042EE1
S113046002C0220F331F0A94E2F790E08223932301
S1130470FC2F8217930709F4FD2FEC2FCB01822365
S113048093238217930709F0ED2FFE1303C082B361
S1130490282722BB4F5F5F4F44305105F1F6DF91AF
S11304A0CF910895CF93DF936295607F833409F4ED
S11304B062C028F4813459F0823499F186C08236BE
S11304C081F1833609F457C0813609F07EC044E0D7
S11304D050E0A1E0B0E0C1E0D0E070E08BB39D015A
S11304E0042E02C0220F331F0A94E2F790E0822305
S11304F09323FC2F8217930709F4FD2FEC2FCB01D4
S1130500822393238217930709F0ED2FFE1303C070
S11305108BB328272BBB4F5F5F4F48305105F1F653
S11305207DC044E050E0A1E0B0E0C1E0D0E070E084
S113053088B39D01042E02C0220F331F0A94E2F7F0
S113054090E082239323FC2F8217930709F4FD2F55
S1130550EC2FCB01822393238217930709F0ED2F0D
S1130560FE1303C088B3282728BB4F5F5F4F483072
S11305705105F1F653C044E050E0A1E0B0E0C1E021
S1130580D0E070E085B39D01042E02C0220F331F1A
S11305900A94E2F790E082239323FC2F82179307B7
S11305A009F4FD2FEC2FCB018223932382179307A9
S11305B009F0ED2FFE1303C085B3282725BB4F5F39
S11305C05F4F48305105F1F629C044E050E0A1E006
S11305D0B0E0C1E0D0E070E082B39D01042E02C01F
S11305E0220F331F0A94E2F790E082239323FC2F17
S11305F08217930709F4FD2FEC2FCB018223932359
S11306008217930709F0ED2FFE1303C082B3282746
S113061022BB4F5F5F4F48305105F1F6DF91CF9118
S113062008958334A1F028F4813449F0823459F0D8
S113063012C0823641F0833651F0813661F489B3B9
S113064082958F70089586B382958F70089583B3D1
S113065082958F70089580B382958F700895833446
S113066009F450C028F4813459F0823451F16BC03C
S1130670823639F1833609F445C0813609F063C006
S113068080E090E0E1E0F0E061110CC03AB3AF012A
S1130690082E02C0440F551F0A94E2F7242F209518
S11306A0232309C04AB39F01082E02C0220F331F1F
S11306B00A94E2F7242B2ABB01968430910521F792
S11306C0089580E090E0E1E0F0E061110CC037B300
S11306D0AF01082E02C0440F551F0A94E2F7242FDD
S11306E02095232309C047B39F01082E02C0220F7F
S11306F0331F0A94E2F7242B27BB0196843091051B
S113070021F7089580E090E0E1E0F0E061110CC091
S113071034B3AF01082E02C0440F551F0A94E2F708
S1130720242F2095232309C044B39F01082E02C01F
S1130730220F331F0A94E2F7242B24BB0196843042
S1130740910521F7089580E090E0E1E0F0E0611187
S11307500CC031B3AF01082E02C0440F551F0A94D8
S1130760E2F7242F2095232309C041B39F01082ECB
S113077002C0220F331F0A94E2F7242B21BB0196F7
S11307808430910521F70895833409F450C028F486
S1130790813459F0823451F16BC0823639F1833699
S11307A009F445C0813609F063C084E090E0E1E0DB
S11307B0F0E061110CC03AB3AF01082E02C0440F3F
S11307C0551F0A94E2F7242F2095232309C04AB326
S11307D09F01082E02C0220F331F0A94E2F7242B34
S11307E02ABB01968830910521F7089584E090E0B2
S11307F0E1E0F0E061110CC037B3AF01082E02C094
S1130800440F551F0A94E2F7242F2095232309C08F
S113081047B39F01082E02C0220F331F0A94E2F748
S1130820242B27BB01968830910521F7089584E095
S113083090E0E1E0F0E061110CC034B3AF01082EA8
S113084002C0440F551F0A94E2F7242F2095232356
S113085009C044B39F01082E02C0220F331F0A941B
S1130860E2F7242B24BB01968830910521F70895E3
S113087084E090E0E1E0F0E061110CC031B3AF013D
S1130880082E02C0440F551F0A94E2F7242F209526
S1130890232309C041B39F01082E02C0220F331F36
S11308A00A94E2F7242B21BB01968830910521F7A5
S11308B008956FE083E60E94520261E083E60E949D
S11308C02F030895CF93DF93D0E06FEF83E60E9468
S11308D0950140E06D2F83E60E94D8008FE39CE9E8
S11308E00197F1F700C00000C4E06C2F83E60E947A
S11308F0430181111CC09FEF22E587E09150204005
S11309008040E1F700C000006C2F83E60E944301A1
S113091081110DC0ED2FF0E0EE0FFF1FEE0FFF1F52
S1130920E05AFF4FEC0FF11D3497808107C0CF5F71
S1130930C830D9F6DF5FD43041F680E0DF91CF9143
S1130940089541E063E082E40E94D8008FE891E0DA
S11309500197F1F700C0000040E063E082E40E94E8
S1130960D8000895CF93C82F40E061E082E40E944C
S1130970D80040E062E082E40E94D8006C2F6295C7
S11309806F7081E40E9452020E94A1046C2F81E4E2
S11309900E9452020E94A104CF91089541E063E0B5
S11309A082E40E946D0041E061E082E40E946D00F7
S11309B041E062E082E40E946D0061E081E40E9413
S11309C0C40340E061E082E40E94D80040E062E0B9
S11309D082E40E94D80083E30E94B20482E30E946E
S11309E0B2042FEF86E791E0215080409040E1F778
S11309F000C0000088E20E94B20420ED2A95F1F7BD
S1130A008FE00E94B20480ED8A95F1F781E00E94A4
S1130A10B20487EE97E10197F1F700C0000086E089
S1130A200E94B2040895CF93C82F41E061E082E4AC
S1130A300E94D80040E062E082E40E94D8006C2F5B
S1130A4062956F7081E40E9452020E94A1046C2F8F
S1130A5081E40E9452020E94A104CF910895CF9391
S1130A6060E081E40E94C40340E061E082E40E940B
S1130A70D80041E062E082E40E94D80041E063E0F3
S1130A8082E40E94D80081E40E941103C82F87ECFD
S1130A9090E00197F1F700C0000040E063E082E4D9
S1130AA00E94D80041E063E082E40E94D80087EC11
S1130AB090E00197F1F700C0000040E063E082E4B9
S1130AC00E94D80061E081E40E94C4038C2F8695C3
S1130AD086958695CF91089581E00E94B204089589
S1130AE00F931F93CF938C01C0E008C00E9413059D
S1130AF0CF5FC03119F480EC0E94B204F801EC0F0E
S1130B00F11D80818111F2CFCF911F910F91089532
S1130B10AF92BF92CF92DF92EF92FF920F931F9307
S1130B20CF93DF936C018A309105D0F1CAE0D0E015
S1130B30EE24E394F12C3FEFE31AF30ACE01880F7D
S1130B40991FCC0FDD1FCC0FDD1FCC0FDD1FC80F8D
S1130B50D91FC601BE010E94CA0C672B61F71E147F
S1130B601F04DCF500E010E00F2EFAE0AF2EB12CEC
S1130B70F02DC601BE010E94CA0C9C01CE01B50134
S1130B800E94DE0CEB01C9010E94CA0C80E3860FAF
S1130B900E9413050F5F1F4F0E151F0554F31DC050
S1130BA09C01ADECBCEC0E94F80C9695879596954B
S1130BB08795969587959C01220F331F880F991F5F
S1130BC0880F991F880F991F820F931F9601281B66
S1130BD0390BC901805D0E941305DF91CF911F91EC
S1130BE00F91FF90EF90DF90CF90BF90AF9008955A
S1130BF0CF93DF93D82F61110DC080E80E94B20417
S1130C00DD23A1F0C0E084E10E94B204CF5FDC13D5
S1130C10FACF0CC080EC0E94B204DD2339F0C0E0AE
S1130C2084E10E94B204CF5FDC13FACFDF91CF914D
S1130C30089587E080939200E3E9F0E01182108246
S1130C40109295000E94CE040E9459040E94130839
S1130C5080E790E00E9470052FEF83ED90E3215030
S1130C6080409040E1F700C000000E94210780E02E
S1130C700E94560781E00E9448070E94E4070AE0A8
S1130C80C3E9D0E00E946204182F8F3219F40E9445
S1130C90E407F8CF8336C1F581E00E94FB0781E0C9
S1130CA00E94560780E00E94480764E68091950000
S1130CB00E941D080DC00E9494070E94A4072FEFF4
S1130CC086E590E3215080409040E1F700C00000A9
S1130CD089818111F0CF88818111EDCF0E94E407D1
S1130CE00E945E0880E00E94560781E00E94480747
S1130CF00E94210780E00E94FB079091950081E00B
S1130D00892780939500BECF8D33C1F581E00E9481
S1130D10FB0781E00E94560780E00E94480764E6D2
S1130D20809195000E941D080DC00E9494070E94A6
S1130D30C2072FEF86E590E3215080409040E1F711
S1130D4000C0000089818111F0CF88818111EDCF2D
S1130D500E94E4070E945E0880E00E94560781E03A
S1130D600E9448070E94210780E00E94FB0790919F
S1130D70950081E089278093950084CF86ED810FCB
S1130D80823008F47FCF1D3209F47CCF8091920029
S1130D90873081F18A3099F42DC0812F90E0C0977B
S1130DA006970CF06FCF812F0E941305812F0E94AC
S1130DB06407809192008F5F8093920063CF8930A3
S1130DC039F40093920060E0802F0E94F8055ACF16
S1130DD08C3008F057CF112309F454CF812F0E948F
S1130DE01305812F0E946407809192008F5F809386
S1130DF0920048CF1111D1CF45CF1F920F920FB659
S1130E000F9211242F933F934F935F936F937F938C
S1130E108F939F93AF93BF93EF93FF930E94E40745
S1130E20FF91EF91BF91AF919F918F917F916F91BE
S1130E305F914F913F912F910F900FBE0F901F9094
S1130E401895CF9341E063E081E60E946D00C3E012
S1130E5041E063E081E60E94D8002FEF8EE595E043
S1130E60215080409040E1F700C0000040E063E082
S1130E7081E60E94D8002FEF8EE595E02150804056
S1130E809040E1F700C00000C15011F7CF910895E0
S1130E90CF93C82F41E061E081E60E946D004C2FA2
S1130EA061E081E60E94D800CF910895CF93C82FC6
S1130EB041E062E081E60E946D004C2F62E081E631
S1130EC00E94D800CF91089590919200973061F4D8
S1130ED0E3E9F0E0880F8056982F990F990F890F56
S1130EE09181890F81830895983039F4E3E9F0E022
S1130EF091819053890F818308959A3061F4E3E9D5
S1130F00F0E0880F8056982F990F990F890F9081E0
S1130F10890F808308959B3031F4E3E9F0E09081F8
S1130F209053890F8083089580919300882321F042
S1130F308150809393000895E3E9F0E0818181502A
S1130F4081838BE380830895CF93DF9360E087E010
S1130F500E94F8058BE790E00E94700560E087E04E
S1130F600E94F805C3E9D0E0898190E00E948805D9
S1130F708AE30E941305888190E00E948805DF912E
S1130F80CF910895CF93DF9360E087E00E94F80546
S1130F908BE790E00E94700560E087E00E94F8050E
S1130FA0C3E9D0E0898190E00E9488058AE30E9429
S1130FB01305888190E00E94880581E890E00E94F2
S1130FC07005DF91CF9108950E946C050E942F0552
S1130FD08111FCCF87E08093920085E890E00E9425
S1130FE0700560E0809192000E94F805E3E9F0E06A
S1130FF0118210820895CF93C82F789440E062E064
S113100084E60E946D0085B7826085BF85B78160E4
S113101085BFC11103C08BB78F7B02C08BB78064BF
S11310208BBFCF91089581E00E94960883E00E94CF
S1131030710883E00E94A70908950F93CF93DF936B
S1131040D82FC62F83E00E94710883E00E94A7096D
S1131050DD23B9F06C2F70E080E090E00E94AB0BD0
S1131060AB01BC0100E02FEF30E080E00E941E0ADB
S11310702FEF30E040E050E0BA0181E00E941E0A08
S113108016C000E02FEF30E040E050E0BA0180E00D
S11310900E941E0A6C2F70E080E090E00E94AB0B6F
S11310A0AB01BC012FEF30E081E00E941E0A86E014
S11310B00E94CC09DF91CF910F9108950E94140AE8
S11310C080E00E94710880E00E94A70940E065E08A
S11310D084E60E94D80040E064E084E60E94D800E0
S11310E00895833041F48D9A8FB58F7B8FBD8FB572
S11310F080688FBD0895823041F48D9A8FB58064E5
S11311008FBD8FB580688FBD0895813041F48D9A6D
S11311108FB580648FBD8FB58F778FBD08958FB5E0
S11311208F7B8FBD8FB58F778FBD0895843081F409
S11311308EB58F7E8EBD8EB588608EBD8FB58D7F4A
S11311408FBD8FB58E7F8FBD8FEF8BBD8ABD089508
S11311508C3081F48EB580618EBD8EB5877F8EBD57
S11311608FB58D7F8FBD8FB58E7F8FBD8FEF87BD80
S113117086BD0895813099F48EB58F7E8EBD8EB56F
S1131180877F8EBD8FB58D7F8FBD8FB581608FBDFD
S11311901BBC8FE78ABD83E00E94710808958230EA
S11311A099F48EB58F7E8EBD8EB5877F8EBD8FB53B
S11311B082608FBD8FB58E7F8FBD1BBC8FEF8ABDC4
S11311C083E00E94710808958330A1F48EB58F7E68
S11311D08EBD8EB5877F8EBD8FB582608FBD8FB576
S11311E081608FBD81E08BBD8FEF8ABD83E00E945B
S11311F0710808958A3081F48EB580618EBD8EB5F4
S1131200877F8EBD8FB582608FBD8FB581608FBDA6
S113121083E00E94710808958B3081F48EB580615B
S11312208EBD8EB5877F8EBD8FB582608FBD8FB525
S11312308E7F8FBD83E00E9471080895853099F4F4
S11312408EB58F7E8EBD8EB588608EBD8FB58D7F39
S11312508FBD8FB581608FBD1BBC8FE78ABD83E0D6
S11312600E9471080895863099F48EB58F7E8EBDE4
S11312708EB588608EBD8FB582608FBD8FB58E7F31
S11312808FBD1BBC8FEF8ABD83E00E947108089557
S11312908730A1F48EB58F7E8EBD8EB588608EBDED
S11312A08FB582608FBD8FB581608FBD81E08BBDAE
S11312B08FEF8ABD83E00E9471080895893069F434
S11312C08EB580618EBD8EB5877F8EBD8FB58D7FC7
S11312D08FBD8FB58E7F8FBD0895883069F48EB52C
S11312E080618EBD8EB5877F8EBD8FB58D7F8FBD9E
S11312F08FB581608FBD08958E3069F48EB580619D
S11313008EBD8EB588608EBD8FB582608FBD8FB562
S113131081608FBD08958D3069F48EB580618EBD76
S11313208EB588608EBD8FB582608FBD8FB58E7F80
S11313308FBD08958EB58F7E8EBD8EB5877F8EBD91
S11313408FB58D7F8FBD8FB58E7F8FBD0895833010
S113135041F48C9A8FB58F7E8FBD8FB580628FBD1F
S11313600895823041F48C9A8FB580618FBD8FB51A
S113137080628FBD0895813041F48C9A8FB580616D
S11313808FBD8FB58F7D8FBD08958FB58F7E8FBD37
S11313908FB58F7D8FBD0895823051F48EB58160F5
S11313A08EBD8EB58D7F8EBD8EB58B7F8EBD08951F
S11313B0833051F48EB58E7F8EBD8EB582608EBD26
S11313C08EB58B7F8EBD0895843051F48EB58160C7
S11313D08EBD8EB582608EBD8EB58B7F8EBD089519
S11313E0853051F48EB58E7F8EBD8EB58D7F8EBDCA
S11313F08EB584608EBD0895863051F48EB58160BB
S11314008EBD8EB58D7F8EBD8EB584608EBD0895E4
S1131410811109C08EB581608EBD8EB582608EBD8E
S11314208EB584608EBD08958EB58E7F8EBD8EB5CB
S11314308D7F8EBD8EB58B7F8EBD0895AF92BF928A
S1131440CF92DF92EF92FF920F931F93CF93DF938C
S1131450A82EF42E152FD62FC72FB90180E090E0C7
S11314600E94AB0BD62EE72EC82EB92E2F2D312F6E
S11314704D2F5C2F0E94050B882324F4FD2C1E2D78
S1131480DC2DCB2D20E030E0A9016F2D712F8D2FA5
S11314909C2F0E94050B882324F4F12C10E0D0E04B
S11314A0C0E0002371F02F2D312F4D2F5C2F60E011
S11314B070E088EC92E40E94980AF62E172FD82F39
S11314C0C92F81E0A81215C020E030E048EC52E4B6
S11314D06F2D712F8D2F9C2F0E940A0B2D2D3E2DC9
S11314E04C2D5B2D0E945D0C0E947C0B79BD68BD68
S11314F014C020E030E048EC52E46F2D712F8D2FA2
S11315009C2F0E940A0B2D2D3E2D4C2D5B2D0E94ED
S11315105D0C0E947C0B7BBD6ABDDF91CF911F9156
S11315200F91FF90EF90DF90CF90BF90AF90089510
S11315305058BB27AA270E94B00A0C94230C0E947F
S1131540150C38F00E941C0C20F039F49F3F19F45C
S113155026F40C94120C0EF4E095E7FB0C940C0C9E
S1131560E92F0E94340C58F3BA17620773078407F3
S1131570950720F079F4A6F50C94560C0EF4E0953A
S11315800B2EBA2FA02D0B01B90190010C01CA0139
S1131590A0011124FF27591B99F0593F50F4503EE4
S11315A068F11A16F040A22F232F342F4427585FD6
S11315B0F3CF469537952795A795F0405395C9F7EE
S11315C07EF41F16BA0B620B730B840BBAF09150A6
S11315D0A1F0FF0FBB1F661F771F881FC2F70EC045
S11315E0BA0F621F731F841F48F487957795679518
S11315F0B795F7959E3F08F0B0CF9395880F08F004
S11316009927EE0F9795879508950E94E80B08F4A3
S113161081E008950E941E0B0C94230C0E941C0C64
S113162058F00E94150C40F029F45F3F29F00C9407
S11316300C0C51110C94570C0C94120C0E94340C89
S113164068F39923B1F3552391F3951B550BBB27ED
S1131650AA2762177307840738F09F5F5F4F220F32
S1131660331F441FAA1FA9F335D00E2E3AF0E0E829
S113167032D091505040E695001CCAF72BD0FE2F73
S113168029D0660F771F881FBB1F26173707480707
S1131690AB07B0E809F0BB0B802DBF01FF279358BF
S11316A05F4F3AF09E3F510578F00C940C0C0C946B
S11316B0570C5F3FE4F3983ED4F38695779567958E
S11316C0B795F7959F5FC9F7880F911D96958795F4
S11316D097F90895E1E0660F771F881FBB1F621713
S11316E073078407BA0720F0621B730B840BBA0BD1
S11316F0EE1F88F7E09508950E943C0C88F09F57F0
S113170098F0B92F9927B751B0F0E1F0660F771F21
S1131710881F991F1AF0BA95C9F714C0B13091F017
S11317200E94560CB1E008950C94560C672F782F44
S11317308827B85F39F0B93FCCF3869577956795DC
S1131740B395D9F73EF490958095709561957F4F48
S11317508F4F9F4F0895E89409C097FB3EF49095EE
S11317608095709561957F4F8F4F9F4F9923A9F076
S1131770F92F96E9BB279395F69587957795679505
S1131780B795F111F8CFFAF4BB0F11F460FF1BC049
S11317906F5F7F4F8F4F9F4F16C0882311F096E9DC
S11317A011C0772321F09EE8872F762F05C066238A
S11317B071F096E8862F70E060E02AF09A95660F43
S11317C0771F881FDAF7880F9695879597F90895FC
S11317D0990F0008550FAA0BE0E8FEEF161617063E
S11317E0E807F907C0F012161306E407F50798F0A6
S11317F0621B730B840B950B39F40A2661F0232BBF
S1131800242B252B21F408950A2609F4A140A6953A
S11318108FEF811D811D089597F99F6780E870E01F
S113182060E008959FEF80EC089500240A94161652
S1131830170618060906089500240A9412161306BA
S1131840140605060895092E0394000C11F4882348
S113185052F0BB0F40F4BF2B11F460FF04C06F5F64
S11318607F4F8F4F9F4F089557FD9058440F551F3A
S113187059F05F3F71F04795880F97FB991F61F00E
S11318809F3F79F087950895121613061406551F85
S1131890F2CF4695F1DF08C0161617061806991FF1
S11318A0F1CF86957105610508940895E894BB27E6
S11318B066277727CB0197F908950E94700C0C9442
S11318C0230C0E94150C38F00E941C0C20F0952368
S11318D011F00C940C0C0C94120C11240C94570C55
S11318E00E94340C70F3959FC1F3950F50E0551F7F
S11318F0629FF001729FBB27F00DB11D639FAA2761
S1131900F00DB11DAA1F649F6627B00DA11D661FAF
S1131910829F2227B00DA11D621F739FB00DA11DD0
S1131920621F839FA00D611D221F749F3327A00D8A
S1131930611D231F849F600D211D822F762F6A2F26
S113194011249F5750409AF0F1F088234AF0EE0F8B
S1131950FF1FBB1F661F771F881F91505040A9F7B8
S11319609E3F510580F00C940C0C0C94570C5F3F77
S1131970E4F3983ED4F3869577956795B795F795F4
S1131980E7959F5FC1F7FE2B880F911D969587956C
S113199097F90895AA1BBB1B51E107C0AA1FBB1FDF
S11319A0A617B70710F0A61BB70B881F991F5A95E7
S11319B0A9F780959095BC01CD01089597FB072E5A
S11319C016F4009407D077FD09D00E94CA0C07FCD6
S11319D005D03EF4909581959F4F0895709561953B
S11319E07F4F0895EE0FFF1F0590F491E02D0994A9
S11319F0A29FB001B39FC001A39F700D811D11244C
S1131A00911DB29F700D811D1124911D0895F894AC
S1051A10FFCF02
S1131A123132332D3435362A3738392F63303D2B62
S1131A2257656C636F6D65203A29002020202020C1
S1131A320020202A0054696D65203D2030303A3060
S1051A4230006E
S9030000FC
